{
    "contractName": "GFAT",
    "abi": [
        {
            "inputs": [],
            "stateMutability": "nonpayable",
            "type": "constructor"
        },
        {
            "anonymous": false,
            "inputs": [
                {
                    "indexed": false,
                    "internalType": "uint32",
                    "name": "id",
                    "type": "uint32"
                }
            ],
            "name": "CreateDepartment",
            "type": "event"
        },
        {
            "anonymous": false,
            "inputs": [
                {
                    "indexed": false,
                    "internalType": "address",
                    "name": "add",
                    "type": "address"
                }
            ],
            "name": "CreateOfficer",
            "type": "event"
        },
        {
            "anonymous": false,
            "inputs": [
                {
                    "indexed": false,
                    "internalType": "uint32",
                    "name": "pid",
                    "type": "uint32"
                }
            ],
            "name": "CreateProject",
            "type": "event"
        },
        {
            "anonymous": false,
            "inputs": [
                {
                    "indexed": false,
                    "internalType": "uint32",
                    "name": "pid",
                    "type": "uint32"
                },
                {
                    "indexed": false,
                    "internalType": "uint32",
                    "name": "tid",
                    "type": "uint32"
                }
            ],
            "name": "CreateTransaction",
            "type": "event"
        },
        {
            "anonymous": false,
            "inputs": [
                {
                    "indexed": false,
                    "internalType": "uint32",
                    "name": "pid",
                    "type": "uint32"
                },
                {
                    "indexed": false,
                    "internalType": "address",
                    "name": "off_id",
                    "type": "address"
                }
            ],
            "name": "OfficerAssignedtoProject",
            "type": "event"
        },
        {
            "anonymous": false,
            "inputs": [
                {
                    "indexed": false,
                    "internalType": "uint32",
                    "name": "pid",
                    "type": "uint32"
                },
                {
                    "indexed": false,
                    "internalType": "uint32",
                    "name": "tid",
                    "type": "uint32"
                },
                {
                    "indexed": false,
                    "internalType": "address",
                    "name": "off_id",
                    "type": "address"
                }
            ],
            "name": "SendApproval",
            "type": "event"
        },
        {
            "anonymous": false,
            "inputs": [
                {
                    "indexed": false,
                    "internalType": "uint32",
                    "name": "pid",
                    "type": "uint32"
                },
                {
                    "indexed": false,
                    "internalType": "uint32",
                    "name": "tid",
                    "type": "uint32"
                }
            ],
            "name": "TransactionApproved",
            "type": "event"
        },
        {
            "inputs": [],
            "name": "admin",
            "outputs": [
                {
                    "internalType": "address",
                    "name": "",
                    "type": "address"
                }
            ],
            "stateMutability": "view",
            "type": "function"
        },
        {
            "inputs": [
                {
                    "internalType": "uint256",
                    "name": "",
                    "type": "uint256"
                }
            ],
            "name": "departments",
            "outputs": [
                {
                    "internalType": "uint32",
                    "name": "dep_id",
                    "type": "uint32"
                },
                {
                    "internalType": "uint32",
                    "name": "prj_count",
                    "type": "uint32"
                },
                {
                    "internalType": "uint32",
                    "name": "off_count",
                    "type": "uint32"
                },
                {
                    "internalType": "string",
                    "name": "name",
                    "type": "string"
                }
            ],
            "stateMutability": "view",
            "type": "function"
        },
        {
            "inputs": [
                {
                    "internalType": "address",
                    "name": "",
                    "type": "address"
                }
            ],
            "name": "officers",
            "outputs": [
                {
                    "internalType": "string",
                    "name": "name",
                    "type": "string"
                },
                {
                    "internalType": "uint32",
                    "name": "dep_id",
                    "type": "uint32"
                },
                {
                    "internalType": "uint32",
                    "name": "prj_count",
                    "type": "uint32"
                },
                {
                    "internalType": "address",
                    "name": "off_addr",
                    "type": "address"
                }
            ],
            "stateMutability": "view",
            "type": "function"
        },
        {
            "inputs": [
                {
                    "internalType": "uint256",
                    "name": "",
                    "type": "uint256"
                }
            ],
            "name": "officers_list",
            "outputs": [
                {
                    "internalType": "address",
                    "name": "",
                    "type": "address"
                }
            ],
            "stateMutability": "view",
            "type": "function"
        },
        {
            "inputs": [
                {
                    "internalType": "uint256",
                    "name": "",
                    "type": "uint256"
                }
            ],
            "name": "projects",
            "outputs": [
                {
                    "internalType": "uint32",
                    "name": "prj_id",
                    "type": "uint32"
                },
                {
                    "internalType": "uint32",
                    "name": "dep_id",
                    "type": "uint32"
                },
                {
                    "internalType": "uint32",
                    "name": "trx_count",
                    "type": "uint32"
                },
                {
                    "internalType": "uint32",
                    "name": "assigned_off_count",
                    "type": "uint32"
                },
                {
                    "internalType": "string",
                    "name": "name",
                    "type": "string"
                },
                {
                    "internalType": "enum GFAT.District",
                    "name": "prj_district",
                    "type": "uint8"
                }
            ],
            "stateMutability": "view",
            "type": "function"
        },
        {
            "inputs": [
                {
                    "internalType": "uint256",
                    "name": "",
                    "type": "uint256"
                }
            ],
            "name": "transactions",
            "outputs": [
                {
                    "internalType": "uint32",
                    "name": "tid",
                    "type": "uint32"
                },
                {
                    "internalType": "uint32",
                    "name": "pid",
                    "type": "uint32"
                },
                {
                    "internalType": "uint32",
                    "name": "required_votes",
                    "type": "uint32"
                },
                {
                    "internalType": "uint32",
                    "name": "approval_votes",
                    "type": "uint32"
                },
                {
                    "internalType": "string",
                    "name": "trx_from",
                    "type": "string"
                },
                {
                    "internalType": "string",
                    "name": "trx_to",
                    "type": "string"
                },
                {
                    "internalType": "uint32",
                    "name": "trx_amt",
                    "type": "uint32"
                },
                {
                    "internalType": "string",
                    "name": "statement",
                    "type": "string"
                },
                {
                    "internalType": "enum GFAT.TransactionState",
                    "name": "state",
                    "type": "uint8"
                }
            ],
            "stateMutability": "view",
            "type": "function"
        },
        {
            "inputs": [],
            "name": "isAdmin",
            "outputs": [
                {
                    "internalType": "bool",
                    "name": "",
                    "type": "bool"
                }
            ],
            "stateMutability": "view",
            "type": "function"
        },
        {
            "inputs": [
                {
                    "internalType": "uint32",
                    "name": "dep_id",
                    "type": "uint32"
                },
                {
                    "internalType": "uint32",
                    "name": "prj_id",
                    "type": "uint32"
                }
            ],
            "name": "getDepPrj",
            "outputs": [
                {
                    "internalType": "uint32",
                    "name": "",
                    "type": "uint32"
                }
            ],
            "stateMutability": "view",
            "type": "function"
        },
        {
            "inputs": [
                {
                    "internalType": "uint32",
                    "name": "dep_id",
                    "type": "uint32"
                },
                {
                    "internalType": "uint32",
                    "name": "off_id",
                    "type": "uint32"
                }
            ],
            "name": "getDepOff",
            "outputs": [
                {
                    "internalType": "address",
                    "name": "",
                    "type": "address"
                }
            ],
            "stateMutability": "view",
            "type": "function"
        },
        {
            "inputs": [],
            "name": "getDepCount",
            "outputs": [
                {
                    "internalType": "uint32",
                    "name": "",
                    "type": "uint32"
                }
            ],
            "stateMutability": "view",
            "type": "function"
        },
        {
            "inputs": [
                {
                    "internalType": "uint32",
                    "name": "prj_id",
                    "type": "uint32"
                },
                {
                    "internalType": "uint32",
                    "name": "trx_id",
                    "type": "uint32"
                }
            ],
            "name": "getPrjTrx",
            "outputs": [
                {
                    "internalType": "uint32",
                    "name": "",
                    "type": "uint32"
                }
            ],
            "stateMutability": "view",
            "type": "function"
        },
        {
            "inputs": [
                {
                    "internalType": "uint32",
                    "name": "prj_id",
                    "type": "uint32"
                },
                {
                    "internalType": "uint32",
                    "name": "off_id",
                    "type": "uint32"
                }
            ],
            "name": "getPrjOff",
            "outputs": [
                {
                    "internalType": "address",
                    "name": "",
                    "type": "address"
                }
            ],
            "stateMutability": "view",
            "type": "function"
        },
        {
            "inputs": [],
            "name": "getPrjCount",
            "outputs": [
                {
                    "internalType": "uint32",
                    "name": "",
                    "type": "uint32"
                }
            ],
            "stateMutability": "view",
            "type": "function"
        },
        {
            "inputs": [],
            "name": "isOfficer",
            "outputs": [
                {
                    "internalType": "bool",
                    "name": "",
                    "type": "bool"
                }
            ],
            "stateMutability": "view",
            "type": "function"
        },
        {
            "inputs": [
                {
                    "internalType": "address",
                    "name": "off_addr",
                    "type": "address"
                },
                {
                    "internalType": "uint32",
                    "name": "prj_id",
                    "type": "uint32"
                }
            ],
            "name": "getOffPrj",
            "outputs": [
                {
                    "internalType": "uint32",
                    "name": "",
                    "type": "uint32"
                }
            ],
            "stateMutability": "view",
            "type": "function"
        },
        {
            "inputs": [
                {
                    "internalType": "uint32",
                    "name": "off_id",
                    "type": "uint32"
                },
                {
                    "internalType": "uint32",
                    "name": "prj_id",
                    "type": "uint32"
                }
            ],
            "name": "getOffIdPrj",
            "outputs": [
                {
                    "internalType": "uint32",
                    "name": "",
                    "type": "uint32"
                }
            ],
            "stateMutability": "view",
            "type": "function"
        },
        {
            "inputs": [
                {
                    "internalType": "uint32",
                    "name": "off_id",
                    "type": "uint32"
                }
            ],
            "name": "getOffAddr",
            "outputs": [
                {
                    "internalType": "address",
                    "name": "",
                    "type": "address"
                }
            ],
            "stateMutability": "view",
            "type": "function"
        },
        {
            "inputs": [],
            "name": "getOffCount",
            "outputs": [
                {
                    "internalType": "uint32",
                    "name": "",
                    "type": "uint32"
                }
            ],
            "stateMutability": "view",
            "type": "function"
        },
        {
            "inputs": [
                {
                    "internalType": "uint32",
                    "name": "tid",
                    "type": "uint32"
                },
                {
                    "internalType": "uint32",
                    "name": "off_id",
                    "type": "uint32"
                }
            ],
            "name": "getTrxAppOff",
            "outputs": [
                {
                    "internalType": "address",
                    "name": "",
                    "type": "address"
                }
            ],
            "stateMutability": "view",
            "type": "function"
        },
        {
            "inputs": [],
            "name": "getTrxCount",
            "outputs": [
                {
                    "internalType": "uint32",
                    "name": "",
                    "type": "uint32"
                }
            ],
            "stateMutability": "view",
            "type": "function"
        },
        {
            "inputs": [
                {
                    "internalType": "string",
                    "name": "dep_name",
                    "type": "string"
                }
            ],
            "name": "createDep",
            "outputs": [
                {
                    "internalType": "uint32",
                    "name": "",
                    "type": "uint32"
                }
            ],
            "stateMutability": "nonpayable",
            "type": "function"
        },
        {
            "inputs": [
                {
                    "internalType": "uint32",
                    "name": "d_id",
                    "type": "uint32"
                },
                {
                    "internalType": "string",
                    "name": "name",
                    "type": "string"
                },
                {
                    "internalType": "address",
                    "name": "addr",
                    "type": "address"
                }
            ],
            "name": "addOfficer",
            "outputs": [],
            "stateMutability": "nonpayable",
            "type": "function"
        },
        {
            "inputs": [
                {
                    "internalType": "string",
                    "name": "pname",
                    "type": "string"
                },
                {
                    "internalType": "uint32",
                    "name": "dep_id",
                    "type": "uint32"
                },
                {
                    "internalType": "enum GFAT.District",
                    "name": "prj_district",
                    "type": "uint8"
                },
                {
                    "internalType": "address[]",
                    "name": "off_id",
                    "type": "address[]"
                }
            ],
            "name": "createProj",
            "outputs": [
                {
                    "internalType": "uint32",
                    "name": "",
                    "type": "uint32"
                }
            ],
            "stateMutability": "nonpayable",
            "type": "function"
        },
        {
            "inputs": [
                {
                    "internalType": "uint32",
                    "name": "pid",
                    "type": "uint32"
                },
                {
                    "internalType": "string",
                    "name": "tx_from",
                    "type": "string"
                },
                {
                    "internalType": "string",
                    "name": "tx_to",
                    "type": "string"
                },
                {
                    "internalType": "uint32",
                    "name": "amt",
                    "type": "uint32"
                },
                {
                    "internalType": "string",
                    "name": "statement",
                    "type": "string"
                },
                {
                    "internalType": "uint32",
                    "name": "req_votes",
                    "type": "uint32"
                }
            ],
            "name": "createTrx",
            "outputs": [
                {
                    "internalType": "uint32",
                    "name": "",
                    "type": "uint32"
                }
            ],
            "stateMutability": "nonpayable",
            "type": "function"
        },
        {
            "inputs": [
                {
                    "internalType": "uint32",
                    "name": "tid",
                    "type": "uint32"
                }
            ],
            "name": "approveTrx",
            "outputs": [],
            "stateMutability": "nonpayable",
            "type": "function"
        }
    ],
    "bytecode": "0x608060405234801561001057600080fd5b5033600560006101000a81548173ffffffffffffffffffffffffffffffffffffffff021916908373ffffffffffffffffffffffffffffffffffffffff160217905550601e600560146101000a81548163ffffffff021916908363ffffffff160217905550601e600560186101000a81548163ffffffff021916908363ffffffff160217905550601e6005601c6101000a81548163ffffffff021916908363ffffffff160217905550600a600660006101000a81548163ffffffff021916908363ffffffff1602179055506156e780620000ea6000396000f3fe608060405234801561001057600080fd5b50600436106101735760003560e01c80638e98209b116100de578063dacb883c11610097578063ed93e55511610071578063ed93e555146104fb578063f035a5df14610517578063f851a44014610547578063fa881cef1461056557610173565b8063dacb883c1461047a578063eaeb60e3146104aa578063ebe4d3c6146104dd57610173565b80638e98209b146103885780639ace38c2146103a6578063a828ae37146103de578063b4801538146103fc578063b6db75a01461042c578063bb9629551461044a57610173565b806331f5c32e1161013057806331f5c32e1461028e57806332ff9aef146102be5780635cd2e0b9146102da5780635d6a2df61461030a5780636566b72f1461033a5780636ded4d061461036a57610173565b80630204e84a14610178578063084866dd146101a857806309fb86c3146101db578063107046bd146101f9578063151313211461022e5780632f99bc081461025e575b600080fd5b610192600480360381019061018d9190614589565b610595565b60405161019f919061460a565b60405180910390f35b6101c260048036038101906101bd9190614651565b61092c565b6040516101d29493929190614726565b60405180910390f35b6101e3610a24565b6040516101f09190614772565b60405180910390f35b610213600480360381019061020e91906147c3565b610a31565b60405161022596959493929190614867565b60405180910390f35b610248600480360381019061024391906147c3565b610b52565b604051610255919061460a565b60405180910390f35b61027860048036038101906102739190614589565b610b91565b6040516102859190614772565b60405180910390f35b6102a860048036038101906102a39190614589565b610ebe565b6040516102b5919061460a565b60405180910390f35b6102d860048036038101906102d391906148cf565b6111f3565b005b6102f460048036038101906102ef9190614589565b611c65565b6040516103019190614772565b60405180910390f35b610324600480360381019061031f9190614589565b611f9a565b604051610331919061460a565b60405180910390f35b610354600480360381019061034f91906148fc565b6123f8565b6040516103619190614772565b60405180910390f35b61037261268c565b60405161037f9190614772565b60405180910390f35b610390612699565b60405161039d9190614957565b60405180910390f35b6103c060048036038101906103bb91906147c3565b6126fb565b6040516103d5999897969594939291906149ba565b60405180910390f35b6103e661294e565b6040516103f39190614772565b60405180910390f35b61041660048036038101906104119190614589565b61295a565b6040516104239190614772565b60405180910390f35b610434612cf1565b6040516104419190614957565b60405180910390f35b610464600480360381019061045f91906148cf565b612d49565b604051610471919061460a565b60405180910390f35b610494600480360381019061048f9190614b91565b612df7565b6040516104a19190614772565b60405180910390f35b6104c460048036038101906104bf91906147c3565b6130e3565b6040516104d49493929190614bda565b60405180910390f35b6104e56131db565b6040516104f29190614772565b60405180910390f35b61051560048036038101906105109190614c26565b6131e8565b005b610531600480360381019061052c9190614d82565b6135cb565b60405161053e9190614772565b60405180910390f35b61054f6139bf565b60405161055c919061460a565b60405180910390f35b61057f600480360381019061057a9190614e21565b6139e5565b60405161058c9190614772565b60405180910390f35b60008263ffffffff1660018054905010156105e5576040517f08c379a00000000000000000000000000000000000000000000000000000000081526004016105dc90614f4e565b60405180910390fd5b6000600180856105f59190614f9d565b63ffffffff168154811061060c5761060b614fd1565b5b9060005260206000209060050201604051806101000160405290816000820160009054906101000a900463ffffffff1663ffffffff1663ffffffff1681526020016000820160049054906101000a900463ffffffff1663ffffffff1663ffffffff1681526020016000820160089054906101000a900463ffffffff1663ffffffff1663ffffffff16815260200160008201600c9054906101000a900463ffffffff1663ffffffff1663ffffffff1681526020016001820180546106ce9061502f565b80601f01602080910402602001604051908101604052809291908181526020018280546106fa9061502f565b80156107475780601f1061071c57610100808354040283529160200191610747565b820191906000526020600020905b81548152906001019060200180831161072a57829003601f168201915b505050505081526020016002820160009054906101000a900460ff16600d811115610775576107746147f0565b5b600d811115610787576107866147f0565b5b81526020016003820180548060200260200160405190810160405280929190818152602001828054801561080657602002820191906000526020600020906000905b82829054906101000a900463ffffffff1663ffffffff16815260200190600401906020826003010492830192600103820291508084116107c95790505b505050505081526020016004820180548060200260200160405190810160405280929190818152602001828054801561089457602002820191906000526020600020905b8160009054906101000a900473ffffffffffffffffffffffffffffffffffffffff1673ffffffffffffffffffffffffffffffffffffffff168152602001906001019080831161084a575b50505050508152505090508263ffffffff16816060015163ffffffff1610156108f2576040517f08c379a00000000000000000000000000000000000000000000000000000000081526004016108e9906150ac565b60405180910390fd5b8060e001516001846109049190614f9d565b63ffffffff168151811061091b5761091a614fd1565b5b602002602001015191505092915050565b600360205280600052604060002060009150905080600001805461094f9061502f565b80601f016020809104026020016040519081016040528092919081815260200182805461097b9061502f565b80156109c85780601f1061099d576101008083540402835291602001916109c8565b820191906000526020600020905b8154815290600101906020018083116109ab57829003601f168201915b5050505050908060010160009054906101000a900463ffffffff16908060010160049054906101000a900463ffffffff16908060030160009054906101000a900473ffffffffffffffffffffffffffffffffffffffff16905084565b6000600480549050905090565b60018181548110610a4157600080fd5b90600052602060002090600502016000915090508060000160009054906101000a900463ffffffff16908060000160049054906101000a900463ffffffff16908060000160089054906101000a900463ffffffff169080600001600c9054906101000a900463ffffffff1690806001018054610abc9061502f565b80601f0160208091040260200160405190810160405280929190818152602001828054610ae89061502f565b8015610b355780601f10610b0a57610100808354040283529160200191610b35565b820191906000526020600020905b815481529060010190602001808311610b1857829003601f168201915b5050505050908060020160009054906101000a900460ff16905086565b60048181548110610b6257600080fd5b906000526020600020016000915054906101000a900473ffffffffffffffffffffffffffffffffffffffff1681565b60008263ffffffff166004805490501015610be1576040517f08c379a0000000000000000000000000000000000000000000000000000000008152600401610bd8906150ac565b60405180910390fd5b600060048463ffffffff1681548110610bfd57610bfc614fd1565b5b9060005260206000200160009054906101000a900473ffffffffffffffffffffffffffffffffffffffff1690506000600360008373ffffffffffffffffffffffffffffffffffffffff1673ffffffffffffffffffffffffffffffffffffffff1681526020019081526020016000206040518060a0016040529081600082018054610c869061502f565b80601f0160208091040260200160405190810160405280929190818152602001828054610cb29061502f565b8015610cff5780601f10610cd457610100808354040283529160200191610cff565b820191906000526020600020905b815481529060010190602001808311610ce257829003601f168201915b505050505081526020016001820160009054906101000a900463ffffffff1663ffffffff1663ffffffff1681526020016001820160049054906101000a900463ffffffff1663ffffffff1663ffffffff16815260200160028201805480602002602001604051908101604052809291908181526020018280548015610dcf57602002820191906000526020600020906000905b82829054906101000a900463ffffffff1663ffffffff1681526020019060040190602082600301049283019260010382029150808411610d925790505b505050505081526020016003820160009054906101000a900473ffffffffffffffffffffffffffffffffffffffff1673ffffffffffffffffffffffffffffffffffffffff1673ffffffffffffffffffffffffffffffffffffffff168152505090508363ffffffff16816040015163ffffffff161015610e83576040517f08c379a0000000000000000000000000000000000000000000000000000000008152600401610e7a90615118565b60405180910390fd5b8060600151600185610e959190614f9d565b63ffffffff1681518110610eac57610eab614fd1565b5b60200260200101519250505092915050565b60008263ffffffff166000805490501015610f0e576040517f08c379a0000000000000000000000000000000000000000000000000000000008152600401610f0590615184565b60405180910390fd5b600080600185610f1e9190614f9d565b63ffffffff1681548110610f3557610f34614fd1565b5b90600052602060002090600402016040518060c00160405290816000820160009054906101000a900463ffffffff1663ffffffff1663ffffffff1681526020016000820160049054906101000a900463ffffffff1663ffffffff1663ffffffff1681526020016000820160089054906101000a900463ffffffff1663ffffffff1663ffffffff168152602001600182018054610fd09061502f565b80601f0160208091040260200160405190810160405280929190818152602001828054610ffc9061502f565b80156110495780601f1061101e57610100808354040283529160200191611049565b820191906000526020600020905b81548152906001019060200180831161102c57829003601f168201915b50505050508152602001600282018054806020026020016040519081016040528092919081815260200182805480156110cd57602002820191906000526020600020906000905b82829054906101000a900463ffffffff1663ffffffff16815260200190600401906020826003010492830192600103820291508084116110905790505b505050505081526020016003820180548060200260200160405190810160405280929190818152602001828054801561115b57602002820191906000526020600020905b8160009054906101000a900473ffffffffffffffffffffffffffffffffffffffff1673ffffffffffffffffffffffffffffffffffffffff1681526020019060010190808311611111575b50505050508152505090508263ffffffff16816040015163ffffffff1610156111b9576040517f08c379a00000000000000000000000000000000000000000000000000000000081526004016111b0906150ac565b60405180910390fd5b8060a001516001846111cb9190614f9d565b63ffffffff16815181106111e2576111e1614fd1565b5b602002602001015191505092915050565b80600060026001836112059190614f9d565b63ffffffff168154811061121c5761121b614fd1565b5b9060005260206000209060070201604051806101400160405290816000820160009054906101000a900463ffffffff1663ffffffff1663ffffffff1681526020016000820160049054906101000a900463ffffffff1663ffffffff1663ffffffff1681526020016000820160089054906101000a900463ffffffff1663ffffffff1663ffffffff16815260200160008201600c9054906101000a900463ffffffff1663ffffffff1663ffffffff1681526020016001820180548060200260200160405190810160405280929190818152602001828054801561135357602002820191906000526020600020905b8160009054906101000a900473ffffffffffffffffffffffffffffffffffffffff1673ffffffffffffffffffffffffffffffffffffffff1681526020019060010190808311611309575b5050505050815260200160028201805461136c9061502f565b80601f01602080910402602001604051908101604052809291908181526020018280546113989061502f565b80156113e55780601f106113ba576101008083540402835291602001916113e5565b820191906000526020600020905b8154815290600101906020018083116113c857829003601f168201915b505050505081526020016003820180546113fe9061502f565b80601f016020809104026020016040519081016040528092919081815260200182805461142a9061502f565b80156114775780601f1061144c57610100808354040283529160200191611477565b820191906000526020600020905b81548152906001019060200180831161145a57829003601f168201915b505050505081526020016004820160009054906101000a900463ffffffff1663ffffffff1663ffffffff1681526020016005820180546114b69061502f565b80601f01602080910402602001604051908101604052809291908181526020018280546114e29061502f565b801561152f5780601f106115045761010080835404028352916020019161152f565b820191906000526020600020905b81548152906001019060200180831161151257829003601f168201915b505050505081526020016006820160009054906101000a900460ff16600381111561155d5761155c6147f0565b5b600381111561156f5761156e6147f0565b5b815250509050600060018083602001516115899190614f9d565b63ffffffff16815481106115a05761159f614fd1565b5b9060005260206000209060050201604051806101000160405290816000820160009054906101000a900463ffffffff1663ffffffff1663ffffffff1681526020016000820160049054906101000a900463ffffffff1663ffffffff1663ffffffff1681526020016000820160089054906101000a900463ffffffff1663ffffffff1663ffffffff16815260200160008201600c9054906101000a900463ffffffff1663ffffffff1663ffffffff1681526020016001820180546116629061502f565b80601f016020809104026020016040519081016040528092919081815260200182805461168e9061502f565b80156116db5780601f106116b0576101008083540402835291602001916116db565b820191906000526020600020905b8154815290600101906020018083116116be57829003601f168201915b505050505081526020016002820160009054906101000a900460ff16600d811115611709576117086147f0565b5b600d81111561171b5761171a6147f0565b5b81526020016003820180548060200260200160405190810160405280929190818152602001828054801561179a57602002820191906000526020600020906000905b82829054906101000a900463ffffffff1663ffffffff168152602001906004019060208260030104928301926001038202915080841161175d5790505b505050505081526020016004820180548060200260200160405190810160405280929190818152602001828054801561182857602002820191906000526020600020905b8160009054906101000a900473ffffffffffffffffffffffffffffffffffffffff1673ffffffffffffffffffffffffffffffffffffffff16815260200190600101908083116117de575b505050505081525050905060008160e0015190506000805b82518163ffffffff1610156118be57828163ffffffff168151811061186857611867614fd1565b5b602002602001015173ffffffffffffffffffffffffffffffffffffffff163373ffffffffffffffffffffffffffffffffffffffff16036118ab57600191506118be565b80806118b6906151a4565b915050611840565b506001151581151514611906576040517f08c379a00000000000000000000000000000000000000000000000000000000081526004016118fd90615242565b60405180910390fd5b6000846080015190506000805b82518163ffffffff16101561199157828163ffffffff168151811061193b5761193a614fd1565b5b602002602001015173ffffffffffffffffffffffffffffffffffffffff163373ffffffffffffffffffffffffffffffffffffffff160361197e5760019150611991565b8080611989906151a4565b915050611913565b5060001515811515146119d9576040517f08c379a00000000000000000000000000000000000000000000000000000000081526004016119d0906152d4565b60405180910390fd5b6000600260018a6119ea9190614f9d565b63ffffffff1681548110611a0157611a00614fd1565b5b9060005260206000209060070201905060016003811115611a2557611a246147f0565b5b8160060160009054906101000a900460ff166003811115611a4957611a486147f0565b5b14611c1f57600181600001600c8282829054906101000a900463ffffffff16611a7291906152f4565b92506101000a81548163ffffffff021916908363ffffffff1602179055508060000160089054906101000a900463ffffffff1663ffffffff1681600001600c9054906101000a900463ffffffff1663ffffffff1610611b465760018160060160006101000a81548160ff02191690836003811115611af357611af26147f0565b5b02179055507fa84b445e220d0e6f77c63509385f36db3e9cbab51929dba9657e25fadf2a42cf8160000160049054906101000a900463ffffffff168a604051611b3d92919061532e565b60405180910390a15b3381600101600183600001600c9054906101000a900463ffffffff16611b6c9190614f9d565b63ffffffff1681548110611b8357611b82614fd1565b5b9060005260206000200160006101000a81548173ffffffffffffffffffffffffffffffffffffffff021916908373ffffffffffffffffffffffffffffffffffffffff1602179055507ffc0d5b251e09ad0045ccbabb275a607b402169f438fc4844ef4f12d274dcec0b898260000160049054906101000a900463ffffffff1633604051611c1293929190615357565b60405180910390a1611c5a565b6040517f08c379a0000000000000000000000000000000000000000000000000000000008152600401611c51906153da565b60405180910390fd5b505050505050505050565b60008263ffffffff166000805490501015611cb5576040517f08c379a0000000000000000000000000000000000000000000000000000000008152600401611cac90615184565b60405180910390fd5b600080600185611cc59190614f9d565b63ffffffff1681548110611cdc57611cdb614fd1565b5b90600052602060002090600402016040518060c00160405290816000820160009054906101000a900463ffffffff1663ffffffff1663ffffffff1681526020016000820160049054906101000a900463ffffffff1663ffffffff1663ffffffff1681526020016000820160089054906101000a900463ffffffff1663ffffffff1663ffffffff168152602001600182018054611d779061502f565b80601f0160208091040260200160405190810160405280929190818152602001828054611da39061502f565b8015611df05780601f10611dc557610100808354040283529160200191611df0565b820191906000526020600020905b815481529060010190602001808311611dd357829003601f168201915b5050505050815260200160028201805480602002602001604051908101604052809291908181526020018280548015611e7457602002820191906000526020600020906000905b82829054906101000a900463ffffffff1663ffffffff1681526020019060040190602082600301049283019260010382029150808411611e375790505b5050505050815260200160038201805480602002602001604051908101604052809291908181526020018280548015611f0257602002820191906000526020600020905b8160009054906101000a900473ffffffffffffffffffffffffffffffffffffffff1673ffffffffffffffffffffffffffffffffffffffff1681526020019060010190808311611eb8575b50505050508152505090508263ffffffff16816020015163ffffffff161015611f60576040517f08c379a0000000000000000000000000000000000000000000000000000000008152600401611f5790614f4e565b60405180910390fd5b8060800151600184611f729190614f9d565b63ffffffff1681518110611f8957611f88614fd1565b5b602002602001015191505092915050565b60008263ffffffff166002805490501015611fea576040517f08c379a0000000000000000000000000000000000000000000000000000000008152600401611fe190615446565b60405180910390fd5b60006002600185611ffb9190614f9d565b63ffffffff168154811061201257612011614fd1565b5b9060005260206000209060070201604051806101400160405290816000820160009054906101000a900463ffffffff1663ffffffff1663ffffffff1681526020016000820160049054906101000a900463ffffffff1663ffffffff1663ffffffff1681526020016000820160089054906101000a900463ffffffff1663ffffffff1663ffffffff16815260200160008201600c9054906101000a900463ffffffff1663ffffffff1663ffffffff1681526020016001820180548060200260200160405190810160405280929190818152602001828054801561214957602002820191906000526020600020905b8160009054906101000a900473ffffffffffffffffffffffffffffffffffffffff1673ffffffffffffffffffffffffffffffffffffffff16815260200190600101908083116120ff575b505050505081526020016002820180546121629061502f565b80601f016020809104026020016040519081016040528092919081815260200182805461218e9061502f565b80156121db5780601f106121b0576101008083540402835291602001916121db565b820191906000526020600020905b8154815290600101906020018083116121be57829003601f168201915b505050505081526020016003820180546121f49061502f565b80601f01602080910402602001604051908101604052809291908181526020018280546122209061502f565b801561226d5780601f106122425761010080835404028352916020019161226d565b820191906000526020600020905b81548152906001019060200180831161225057829003601f168201915b505050505081526020016004820160009054906101000a900463ffffffff1663ffffffff1663ffffffff1681526020016005820180546122ac9061502f565b80601f01602080910402602001604051908101604052809291908181526020018280546122d89061502f565b80156123255780601f106122fa57610100808354040283529160200191612325565b820191906000526020600020905b81548152906001019060200180831161230857829003601f168201915b505050505081526020016006820160009054906101000a900460ff166003811115612353576123526147f0565b5b6003811115612365576123646147f0565b5b8152505090508263ffffffff16816060015163ffffffff1610156123be576040517f08c379a00000000000000000000000000000000000000000000000000000000081526004016123b5906154b2565b60405180910390fd5b80608001516001846123d09190614f9d565b63ffffffff16815181106123e7576123e6614fd1565b5b602002602001015191505092915050565b600080600360008573ffffffffffffffffffffffffffffffffffffffff1673ffffffffffffffffffffffffffffffffffffffff1681526020019081526020016000206040518060a00160405290816000820180546124559061502f565b80601f01602080910402602001604051908101604052809291908181526020018280546124819061502f565b80156124ce5780601f106124a3576101008083540402835291602001916124ce565b820191906000526020600020905b8154815290600101906020018083116124b157829003601f168201915b505050505081526020016001820160009054906101000a900463ffffffff1663ffffffff1663ffffffff1681526020016001820160049054906101000a900463ffffffff1663ffffffff1663ffffffff1681526020016002820180548060200260200160405190810160405280929190818152602001828054801561259e57602002820191906000526020600020906000905b82829054906101000a900463ffffffff1663ffffffff16815260200190600401906020826003010492830192600103820291508084116125615790505b505050505081526020016003820160009054906101000a900473ffffffffffffffffffffffffffffffffffffffff1673ffffffffffffffffffffffffffffffffffffffff1673ffffffffffffffffffffffffffffffffffffffff168152505090508263ffffffff16816040015163ffffffff161015612652576040517f08c379a000000000000000000000000000000000000000000000000000000000815260040161264990615118565b60405180910390fd5b80606001516001846126649190614f9d565b63ffffffff168151811061267b5761267a614fd1565b5b602002602001015191505092915050565b6000600280549050905090565b600080600360003373ffffffffffffffffffffffffffffffffffffffff1673ffffffffffffffffffffffffffffffffffffffff16815260200190815260200160002060010160009054906101000a900463ffffffff1663ffffffff1611905090565b6002818154811061270b57600080fd5b90600052602060002090600702016000915090508060000160009054906101000a900463ffffffff16908060000160049054906101000a900463ffffffff16908060000160089054906101000a900463ffffffff169080600001600c9054906101000a900463ffffffff16908060020180546127869061502f565b80601f01602080910402602001604051908101604052809291908181526020018280546127b29061502f565b80156127ff5780601f106127d4576101008083540402835291602001916127ff565b820191906000526020600020905b8154815290600101906020018083116127e257829003601f168201915b5050505050908060030180546128149061502f565b80601f01602080910402602001604051908101604052809291908181526020018280546128409061502f565b801561288d5780601f106128625761010080835404028352916020019161288d565b820191906000526020600020905b81548152906001019060200180831161287057829003601f168201915b5050505050908060040160009054906101000a900463ffffffff16908060050180546128b89061502f565b80601f01602080910402602001604051908101604052809291908181526020018280546128e49061502f565b80156129315780601f1061290657610100808354040283529160200191612931565b820191906000526020600020905b81548152906001019060200180831161291457829003601f168201915b5050505050908060060160009054906101000a900460ff16905089565b60008080549050905090565b60008263ffffffff1660018054905010156129aa576040517f08c379a00000000000000000000000000000000000000000000000000000000081526004016129a190614f4e565b60405180910390fd5b6000600180856129ba9190614f9d565b63ffffffff16815481106129d1576129d0614fd1565b5b9060005260206000209060050201604051806101000160405290816000820160009054906101000a900463ffffffff1663ffffffff1663ffffffff1681526020016000820160049054906101000a900463ffffffff1663ffffffff1663ffffffff1681526020016000820160089054906101000a900463ffffffff1663ffffffff1663ffffffff16815260200160008201600c9054906101000a900463ffffffff1663ffffffff1663ffffffff168152602001600182018054612a939061502f565b80601f0160208091040260200160405190810160405280929190818152602001828054612abf9061502f565b8015612b0c5780601f10612ae157610100808354040283529160200191612b0c565b820191906000526020600020905b815481529060010190602001808311612aef57829003601f168201915b505050505081526020016002820160009054906101000a900460ff16600d811115612b3a57612b396147f0565b5b600d811115612b4c57612b4b6147f0565b5b815260200160038201805480602002602001604051908101604052809291908181526020018280548015612bcb57602002820191906000526020600020906000905b82829054906101000a900463ffffffff1663ffffffff1681526020019060040190602082600301049283019260010382029150808411612b8e5790505b5050505050815260200160048201805480602002602001604051908101604052809291908181526020018280548015612c5957602002820191906000526020600020905b8160009054906101000a900473ffffffffffffffffffffffffffffffffffffffff1673ffffffffffffffffffffffffffffffffffffffff1681526020019060010190808311612c0f575b50505050508152505090508263ffffffff16816040015163ffffffff161015612cb7576040517f08c379a0000000000000000000000000000000000000000000000000000000008152600401612cae90615446565b60405180910390fd5b8060c00151600184612cc99190614f9d565b63ffffffff1681518110612ce057612cdf614fd1565b5b602002602001015191505092915050565b6000600560009054906101000a900473ffffffffffffffffffffffffffffffffffffffff1673ffffffffffffffffffffffffffffffffffffffff163373ffffffffffffffffffffffffffffffffffffffff1614905090565b60008163ffffffff166004805490501015612d99576040517f08c379a0000000000000000000000000000000000000000000000000000000008152600401612d90906150ac565b60405180910390fd5b60006004600184612daa9190614f9d565b63ffffffff1681548110612dc157612dc0614fd1565b5b9060005260206000200160009054906101000a900473ffffffffffffffffffffffffffffffffffffffff16905080915050919050565b6000600560009054906101000a900473ffffffffffffffffffffffffffffffffffffffff1673ffffffffffffffffffffffffffffffffffffffff163373ffffffffffffffffffffffffffffffffffffffff1614612e89576040517f08c379a0000000000000000000000000000000000000000000000000000000008152600401612e8090615544565b60405180910390fd5b60006040518060c001604052806001600080549050612ea891906152f4565b63ffffffff168152602001600063ffffffff168152602001600063ffffffff168152602001848152602001600560149054906101000a900463ffffffff1663ffffffff1667ffffffffffffffff811115612f0557612f04614a66565b5b604051908082528060200260200182016040528015612f335781602001602082028036833780820191505090505b508152602001600560189054906101000a900463ffffffff1663ffffffff1667ffffffffffffffff811115612f6b57612f6a614a66565b5b604051908082528060200260200182016040528015612f995781602001602082028036833780820191505090505b508152509050600081908060018154018082558091505060019003906000526020600020906004020160009091909190915060008201518160000160006101000a81548163ffffffff021916908363ffffffff16021790555060208201518160000160046101000a81548163ffffffff021916908363ffffffff16021790555060408201518160000160086101000a81548163ffffffff021916908363ffffffff160217905550606082015181600101908051906020019061305c92919061435c565b5060808201518160020190805190602001906130799291906143e2565b5060a0820151816003019080519060200190613096929190614492565b5050506000808054905090507f6415b699cf8e05eb86449ddb4cd58c7e6c0a5dfda14dcfb47a487cdc51123d9a816040516130d19190614772565b60405180910390a18092505050919050565b600081815481106130f357600080fd5b90600052602060002090600402016000915090508060000160009054906101000a900463ffffffff16908060000160049054906101000a900463ffffffff16908060000160089054906101000a900463ffffffff16908060010180546131589061502f565b80601f01602080910402602001604051908101604052809291908181526020018280546131849061502f565b80156131d15780601f106131a6576101008083540402835291602001916131d1565b820191906000526020600020905b8154815290600101906020018083116131b457829003601f168201915b5050505050905084565b6000600180549050905090565b600560009054906101000a900473ffffffffffffffffffffffffffffffffffffffff1673ffffffffffffffffffffffffffffffffffffffff163373ffffffffffffffffffffffffffffffffffffffff1614613278576040517f08c379a000000000000000000000000000000000000000000000000000000000815260040161326f90615544565b60405180910390fd5b60006040518060a001604052808481526020018563ffffffff168152602001600063ffffffff168152602001600660009054906101000a900463ffffffff1663ffffffff1667ffffffffffffffff8111156132d6576132d5614a66565b5b6040519080825280602002602001820160405280156133045781602001602082028036833780820191505090505b5081526020018373ffffffffffffffffffffffffffffffffffffffff16815250905080600360008473ffffffffffffffffffffffffffffffffffffffff1673ffffffffffffffffffffffffffffffffffffffff168152602001908152602001600020600082015181600001908051906020019061338292919061435c565b5060208201518160010160006101000a81548163ffffffff021916908363ffffffff16021790555060408201518160010160046101000a81548163ffffffff021916908363ffffffff16021790555060608201518160020190805190602001906133ed9291906143e2565b5060808201518160030160006101000a81548173ffffffffffffffffffffffffffffffffffffffff021916908373ffffffffffffffffffffffffffffffffffffffff1602179055509050506004829080600181540180825580915050600190039060005260206000200160009091909190916101000a81548173ffffffffffffffffffffffffffffffffffffffff021916908373ffffffffffffffffffffffffffffffffffffffff1602179055506000806001866134ab9190614f9d565b63ffffffff16815481106134c2576134c1614fd1565b5b9060005260206000209060040201905082816003018260000160089054906101000a900463ffffffff1663ffffffff168154811061350357613502614fd1565b5b9060005260206000200160006101000a81548173ffffffffffffffffffffffffffffffffffffffff021916908373ffffffffffffffffffffffffffffffffffffffff16021790555060018160000160088282829054906101000a900463ffffffff1661356f91906152f4565b92506101000a81548163ffffffff021916908363ffffffff1602179055507fa48ee2779218c7f054262b34d310049a464cc3abf403c3964e1029818e9779f5836040516135bc919061460a565b60405180910390a15050505050565b6000600560009054906101000a900473ffffffffffffffffffffffffffffffffffffffff1673ffffffffffffffffffffffffffffffffffffffff163373ffffffffffffffffffffffffffffffffffffffff161461365d576040517f08c379a000000000000000000000000000000000000000000000000000000000815260040161365490615544565b60405180910390fd5b60006040518061010001604052806001808054905061367c91906152f4565b63ffffffff1681526020018663ffffffff168152602001600063ffffffff168152602001845163ffffffff16815260200187815260200185600d8111156136c6576136c56147f0565b5b81526020016005601c9054906101000a900463ffffffff1663ffffffff1667ffffffffffffffff8111156136fd576136fc614a66565b5b60405190808252806020026020018201604052801561372b5781602001602082028036833780820191505090505b508152602001848152509050600181908060018154018082558091505060019003906000526020600020906005020160009091909190915060008201518160000160006101000a81548163ffffffff021916908363ffffffff16021790555060208201518160000160046101000a81548163ffffffff021916908363ffffffff16021790555060408201518160000160086101000a81548163ffffffff021916908363ffffffff160217905550606082015181600001600c6101000a81548163ffffffff021916908363ffffffff160217905550608082015181600101908051906020019061381b92919061435c565b5060a08201518160020160006101000a81548160ff0219169083600d811115613847576138466147f0565b5b021790555060c08201518160030190805190602001906138689291906143e2565b5060e0820151816004019080519060200190613885929190614492565b505050600060018054905090506000806001886138a29190614f9d565b63ffffffff16815481106138b9576138b8614fd1565b5b9060005260206000209060040201905081816002018260000160049054906101000a900463ffffffff1663ffffffff16815481106138fa576138f9614fd1565b5b90600052602060002090600891828204019190066004026101000a81548163ffffffff021916908363ffffffff16021790555060018160000160048282829054906101000a900463ffffffff1661395191906152f4565b92506101000a81548163ffffffff021916908363ffffffff16021790555061397a82888761416c565b7fd48e7150fdf5f1006411f492aa977690efdd6975a173a47bede246a804c37859826040516139a99190614772565b60405180910390a1819350505050949350505050565b600560009054906101000a900473ffffffffffffffffffffffffffffffffffffffff1681565b6000866000600180836139f89190614f9d565b63ffffffff1681548110613a0f57613a0e614fd1565b5b9060005260206000209060050201604051806101000160405290816000820160009054906101000a900463ffffffff1663ffffffff1663ffffffff1681526020016000820160049054906101000a900463ffffffff1663ffffffff1663ffffffff1681526020016000820160089054906101000a900463ffffffff1663ffffffff1663ffffffff16815260200160008201600c9054906101000a900463ffffffff1663ffffffff1663ffffffff168152602001600182018054613ad19061502f565b80601f0160208091040260200160405190810160405280929190818152602001828054613afd9061502f565b8015613b4a5780601f10613b1f57610100808354040283529160200191613b4a565b820191906000526020600020905b815481529060010190602001808311613b2d57829003601f168201915b505050505081526020016002820160009054906101000a900460ff16600d811115613b7857613b776147f0565b5b600d811115613b8a57613b896147f0565b5b815260200160038201805480602002602001604051908101604052809291908181526020018280548015613c0957602002820191906000526020600020906000905b82829054906101000a900463ffffffff1663ffffffff1681526020019060040190602082600301049283019260010382029150808411613bcc5790505b5050505050815260200160048201805480602002602001604051908101604052809291908181526020018280548015613c9757602002820191906000526020600020905b8160009054906101000a900473ffffffffffffffffffffffffffffffffffffffff1673ffffffffffffffffffffffffffffffffffffffff1681526020019060010190808311613c4d575b505050505081525050905060008160e0015190506000805b82518163ffffffff161015613d2d57828163ffffffff1681518110613cd757613cd6614fd1565b5b602002602001015173ffffffffffffffffffffffffffffffffffffffff163373ffffffffffffffffffffffffffffffffffffffff1603613d1a5760019150613d2d565b8080613d25906151a4565b915050613caf565b506001151581151514613d75576040517f08c379a0000000000000000000000000000000000000000000000000000000008152600401613d6c90615242565b60405180910390fd5b60006001808d613d859190614f9d565b63ffffffff1681548110613d9c57613d9b614fd1565b5b906000526020600020906005020190508663ffffffff1681600401805490501015613dfc576040517f08c379a0000000000000000000000000000000000000000000000000000000008152600401613df3906155d6565b60405180910390fd5b60006040518061014001604052806001600280549050613e1c91906152f4565b63ffffffff1681526020018e63ffffffff1681526020018963ffffffff168152602001600063ffffffff168152602001836004018054905067ffffffffffffffff811115613e6d57613e6c614a66565b5b604051908082528060200260200182016040528015613e9b5781602001602082028036833780820191505090505b5081526020018d81526020018c81526020018b63ffffffff1681526020018a815260200160006003811115613ed357613ed26147f0565b5b8152509050600281908060018154018082558091505060019003906000526020600020906007020160009091909190915060008201518160000160006101000a81548163ffffffff021916908363ffffffff16021790555060208201518160000160046101000a81548163ffffffff021916908363ffffffff16021790555060408201518160000160086101000a81548163ffffffff021916908363ffffffff160217905550606082015181600001600c6101000a81548163ffffffff021916908363ffffffff1602179055506080820151816001019080519060200190613fbc929190614492565b5060a0820151816002019080519060200190613fd992919061435c565b5060c0820151816003019080519060200190613ff692919061435c565b5060e08201518160040160006101000a81548163ffffffff021916908363ffffffff16021790555061010082015181600501908051906020019061403b92919061435c565b506101208201518160060160006101000a81548160ff02191690836003811115614068576140676147f0565b5b021790555050506000600280549050905080836003018460000160089054906101000a900463ffffffff1663ffffffff16815481106140aa576140a9614fd1565b5b90600052602060002090600891828204019190066004026101000a81548163ffffffff021916908363ffffffff16021790555060018360000160088282829054906101000a900463ffffffff1661410191906152f4565b92506101000a81548163ffffffff021916908363ffffffff1602179055507f88cabde1bfd5bc58fc1a46b7179e5a0c788641945769fab3572a53f43c09d6c48e8260405161415092919061532e565b60405180910390a1809750505050505050509695505050505050565b60005b81518163ffffffff16101561435657600060036000848463ffffffff168151811061419d5761419c614fd1565b5b602002602001015173ffffffffffffffffffffffffffffffffffffffff1673ffffffffffffffffffffffffffffffffffffffff16815260200190815260200160002090508363ffffffff168160010160009054906101000a900463ffffffff1663ffffffff1614614243576040517f08c379a000000000000000000000000000000000000000000000000000000000815260040161423a90615668565b60405180910390fd5b84816002018260010160049054906101000a900463ffffffff1663ffffffff168154811061427457614273614fd1565b5b90600052602060002090600891828204019190066004026101000a81548163ffffffff021916908363ffffffff16021790555060018160010160048282829054906101000a900463ffffffff166142cb91906152f4565b92506101000a81548163ffffffff021916908363ffffffff1602179055507f87dd3899822aee2fe0ed5cd8d7e76c2a92b22f87d35701d7283e7bc8d909defd85848463ffffffff168151811061432457614323614fd1565b5b602002602001015160405161433a929190615688565b60405180910390a150808061434e906151a4565b91505061416f565b50505050565b8280546143689061502f565b90600052602060002090601f01602090048101928261438a57600085556143d1565b82601f106143a357805160ff19168380011785556143d1565b828001600101855582156143d1579182015b828111156143d05782518255916020019190600101906143b5565b5b5090506143de919061451c565b5090565b828054828255906000526020600020906007016008900481019282156144815791602002820160005b8382111561444f57835183826101000a81548163ffffffff021916908363ffffffff160217905550926020019260040160208160030104928301926001030261440b565b801561447f5782816101000a81549063ffffffff021916905560040160208160030104928301926001030261444f565b505b50905061448e919061451c565b5090565b82805482825590600052602060002090810192821561450b579160200282015b8281111561450a5782518260006101000a81548173ffffffffffffffffffffffffffffffffffffffff021916908373ffffffffffffffffffffffffffffffffffffffff160217905550916020019190600101906144b2565b5b509050614518919061451c565b5090565b5b8082111561453557600081600090555060010161451d565b5090565b6000604051905090565b600080fd5b600080fd5b600063ffffffff82169050919050565b6145668161454d565b811461457157600080fd5b50565b6000813590506145838161455d565b92915050565b600080604083850312156145a05761459f614543565b5b60006145ae85828601614574565b92505060206145bf85828601614574565b9150509250929050565b600073ffffffffffffffffffffffffffffffffffffffff82169050919050565b60006145f4826145c9565b9050919050565b614604816145e9565b82525050565b600060208201905061461f60008301846145fb565b92915050565b61462e816145e9565b811461463957600080fd5b50565b60008135905061464b81614625565b92915050565b60006020828403121561466757614666614543565b5b60006146758482850161463c565b91505092915050565b600081519050919050565b600082825260208201905092915050565b60005b838110156146b857808201518184015260208101905061469d565b838111156146c7576000848401525b50505050565b6000601f19601f8301169050919050565b60006146e98261467e565b6146f38185614689565b935061470381856020860161469a565b61470c816146cd565b840191505092915050565b6147208161454d565b82525050565b6000608082019050818103600083015261474081876146de565b905061474f6020830186614717565b61475c6040830185614717565b61476960608301846145fb565b95945050505050565b60006020820190506147876000830184614717565b92915050565b6000819050919050565b6147a08161478d565b81146147ab57600080fd5b50565b6000813590506147bd81614797565b92915050565b6000602082840312156147d9576147d8614543565b5b60006147e7848285016147ae565b91505092915050565b7f4e487b7100000000000000000000000000000000000000000000000000000000600052602160045260246000fd5b600e81106148305761482f6147f0565b5b50565b60008190506148418261481f565b919050565b600061485182614833565b9050919050565b61486181614846565b82525050565b600060c08201905061487c6000830189614717565b6148896020830188614717565b6148966040830187614717565b6148a36060830186614717565b81810360808301526148b581856146de565b90506148c460a0830184614858565b979650505050505050565b6000602082840312156148e5576148e4614543565b5b60006148f384828501614574565b91505092915050565b6000806040838503121561491357614912614543565b5b60006149218582860161463c565b925050602061493285828601614574565b9150509250929050565b60008115159050919050565b6149518161493c565b82525050565b600060208201905061496c6000830184614948565b92915050565b60048110614983576149826147f0565b5b50565b600081905061499482614972565b919050565b60006149a482614986565b9050919050565b6149b481614999565b82525050565b6000610120820190506149d0600083018c614717565b6149dd602083018b614717565b6149ea604083018a614717565b6149f76060830189614717565b8181036080830152614a0981886146de565b905081810360a0830152614a1d81876146de565b9050614a2c60c0830186614717565b81810360e0830152614a3e81856146de565b9050614a4e6101008301846149ab565b9a9950505050505050505050565b600080fd5b600080fd5b7f4e487b7100000000000000000000000000000000000000000000000000000000600052604160045260246000fd5b614a9e826146cd565b810181811067ffffffffffffffff82111715614abd57614abc614a66565b5b80604052505050565b6000614ad0614539565b9050614adc8282614a95565b919050565b600067ffffffffffffffff821115614afc57614afb614a66565b5b614b05826146cd565b9050602081019050919050565b82818337600083830152505050565b6000614b34614b2f84614ae1565b614ac6565b905082815260208101848484011115614b5057614b4f614a61565b5b614b5b848285614b12565b509392505050565b600082601f830112614b7857614b77614a5c565b5b8135614b88848260208601614b21565b91505092915050565b600060208284031215614ba757614ba6614543565b5b600082013567ffffffffffffffff811115614bc557614bc4614548565b5b614bd184828501614b63565b91505092915050565b6000608082019050614bef6000830187614717565b614bfc6020830186614717565b614c096040830185614717565b8181036060830152614c1b81846146de565b905095945050505050565b600080600060608486031215614c3f57614c3e614543565b5b6000614c4d86828701614574565b935050602084013567ffffffffffffffff811115614c6e57614c6d614548565b5b614c7a86828701614b63565b9250506040614c8b8682870161463c565b9150509250925092565b600e8110614ca257600080fd5b50565b600081359050614cb481614c95565b92915050565b600067ffffffffffffffff821115614cd557614cd4614a66565b5b602082029050602081019050919050565b600080fd5b6000614cfe614cf984614cba565b614ac6565b90508083825260208201905060208402830185811115614d2157614d20614ce6565b5b835b81811015614d4a5780614d36888261463c565b845260208401935050602081019050614d23565b5050509392505050565b600082601f830112614d6957614d68614a5c565b5b8135614d79848260208601614ceb565b91505092915050565b60008060008060808587031215614d9c57614d9b614543565b5b600085013567ffffffffffffffff811115614dba57614db9614548565b5b614dc687828801614b63565b9450506020614dd787828801614574565b9350506040614de887828801614ca5565b925050606085013567ffffffffffffffff811115614e0957614e08614548565b5b614e1587828801614d54565b91505092959194509250565b60008060008060008060c08789031215614e3e57614e3d614543565b5b6000614e4c89828a01614574565b965050602087013567ffffffffffffffff811115614e6d57614e6c614548565b5b614e7989828a01614b63565b955050604087013567ffffffffffffffff811115614e9a57614e99614548565b5b614ea689828a01614b63565b9450506060614eb789828a01614574565b935050608087013567ffffffffffffffff811115614ed857614ed7614548565b5b614ee489828a01614b63565b92505060a0614ef589828a01614574565b9150509295509295509295565b7f496e76616c69642050726f6a6563742069640000000000000000000000000000600082015250565b6000614f38601283614689565b9150614f4382614f02565b602082019050919050565b60006020820190508181036000830152614f6781614f2b565b9050919050565b7f4e487b7100000000000000000000000000000000000000000000000000000000600052601160045260246000fd5b6000614fa88261454d565b9150614fb38361454d565b925082821015614fc657614fc5614f6e565b5b828203905092915050565b7f4e487b7100000000000000000000000000000000000000000000000000000000600052603260045260246000fd5b7f4e487b7100000000000000000000000000000000000000000000000000000000600052602260045260246000fd5b6000600282049050600182168061504757607f821691505b60208210810361505a57615059615000565b5b50919050565b7f496e76616c6964204f6666696365722069640000000000000000000000000000600082015250565b6000615096601283614689565b91506150a182615060565b602082019050919050565b600060208201905081810360008301526150c581615089565b9050919050565b7f496e76616c69642070726f6a6563742069640000000000000000000000000000600082015250565b6000615102601283614689565b915061510d826150cc565b602082019050919050565b60006020820190508181036000830152615131816150f5565b9050919050565b7f496e76616c696420446570206964000000000000000000000000000000000000600082015250565b600061516e600e83614689565b915061517982615138565b602082019050919050565b6000602082019050818103600083015261519d81615161565b9050919050565b60006151af8261454d565b915063ffffffff82036151c5576151c4614f6e565b5b600182019050919050565b7f4f666669636572206e6f742041737369676e656420746f2070726f6a6563742060008201527f2e00000000000000000000000000000000000000000000000000000000000000602082015250565b600061522c602183614689565b9150615237826151d0565b604082019050919050565b6000602082019050818103600083015261525b8161521f565b9050919050565b7f4f66666963657220616c726561647920417070726f766564207468652070726f60008201527f6a656374202e0000000000000000000000000000000000000000000000000000602082015250565b60006152be602683614689565b91506152c982615262565b604082019050919050565b600060208201905081810360008301526152ed816152b1565b9050919050565b60006152ff8261454d565b915061530a8361454d565b92508263ffffffff0382111561532357615322614f6e565b5b828201905092915050565b60006040820190506153436000830185614717565b6153506020830184614717565b9392505050565b600060608201905061536c6000830186614717565b6153796020830185614717565b61538660408301846145fb565b949350505050565b7f5472616e73616374696f6e20616c726561647920417070726f76656400000000600082015250565b60006153c4601c83614689565b91506153cf8261538e565b602082019050919050565b600060208201905081810360008301526153f3816153b7565b9050919050565b7f496e76616c6964205472616e73616374696f6e20696400000000000000000000600082015250565b6000615430601683614689565b915061543b826153fa565b602082019050919050565b6000602082019050818103600083015261545f81615423565b9050919050565b7f496e76616c696420417070726f766564204f6666696365722069640000000000600082015250565b600061549c601b83614689565b91506154a782615466565b602082019050919050565b600060208201905081810360008301526154cb8161548f565b9050919050565b7f54686973206f7065726174696f6e2063616e206f6e6c7920626520657865637560008201527f7465642062792041646d696e0000000000000000000000000000000000000000602082015250565b600061552e602c83614689565b9150615539826154d2565b604082019050919050565b6000602082019050818103600083015261555d81615521565b9050919050565b7f4e6f7420456e6f756768204f666669636572732061737369676e656420746f2060008201527f50726f6a65637400000000000000000000000000000000000000000000000000602082015250565b60006155c0602783614689565b91506155cb82615564565b604082019050919050565b600060208201905081810360008301526155ef816155b3565b9050919050565b7f4f6666696365722042656c6f6e677320746f20616e6f7468657220646570617260008201527f746d656e74000000000000000000000000000000000000000000000000000000602082015250565b6000615652602583614689565b915061565d826155f6565b604082019050919050565b6000602082019050818103600083015261568181615645565b9050919050565b600060408201905061569d6000830185614717565b6156aa60208301846145fb565b939250505056fea2646970667358221220450497f8cb5bca3e79699027e65c32b224eded30f09efc1d12fc3376bf2da49b64736f6c634300080e0033",
    "immutableReferences": {},
    "source": "// SPDX-License-Identifier: GPL-3.0-or-later\npragma solidity >=0.7.0 <0.9.0;\n\ncontract GFAT {\n    //GFAT DATA\n    Department[] public departments;\n    Project[] public projects;\n    Transaction[] public transactions;\n    mapping(address => Officer) public officers;\n    address[] public officers_list;\n    address public admin;\n\n    uint32 MAX_PROJECTS;\n    uint32 MAX_OFFICERS;\n    uint32 MAX_TX_COUNT;\n    uint32 MAX_ASSIGNS;\n\n    constructor() {\n        admin = msg.sender;\n        MAX_PROJECTS = 30;\n        MAX_OFFICERS = 30;\n        MAX_TX_COUNT = 30;\n        MAX_ASSIGNS = 10;\n    }\n\n    modifier onlyAdmin() {\n        require(\n            msg.sender == admin,\n            \"This operation can only be executed by Admin\"\n        );\n        _;\n    }\n\n    modifier onlyAssigned(uint32 tid) {\n        Transaction memory t = transactions[tid - 1];\n        Project memory p = projects[t.pid - 1];\n        address[] memory offid_list = p.assigned_officers;\n        bool flag = false;\n        for (uint32 i = 0; i < offid_list.length; i++) {\n            if (msg.sender == offid_list[i]) {\n                flag = true;\n                break;\n            }\n        }\n        require(flag == true, \"Officer not Assigned to project .\");\n        address[] memory approved_off = t.approved_officers;\n        bool approved = false;\n        for (uint32 i = 0; i < approved_off.length; i++) {\n            if (msg.sender == approved_off[i]) {\n                approved = true;\n                break;\n            }\n        }\n        require(approved == false, \"Officer already Approved the project .\");\n        _;\n    }\n\n    modifier onlyPermitted(uint32 pid) {\n        Project memory p = projects[pid - 1];\n        address[] memory offid_list = p.assigned_officers;\n        bool flag = false;\n        for (uint32 i = 0; i < offid_list.length; i++) {\n            if (msg.sender == offid_list[i]) {\n                flag = true;\n                break;\n            }\n        }\n        require(flag == true, \"Officer not Assigned to project .\");\n        _;\n    }\n\n    struct Department {\n        uint32 dep_id;\n        uint32 prj_count;\n        uint32 off_count;\n        string name;\n        uint32[] projects;\n        address[] officers;\n    }\n\n    struct Transaction {\n        uint32 tid;\n        uint32 pid;\n        uint32 required_votes;\n        uint32 approval_votes;\n        address[] approved_officers;\n        string trx_from;\n        string trx_to;\n        uint32 trx_amt;\n        string statement;\n        TransactionState state;\n    }\n\n    struct Project {\n        uint32 prj_id;\n        uint32 dep_id;\n        uint32 trx_count;\n        uint32 assigned_off_count;\n        string name;\n        District prj_district;\n        uint32[] transactions;\n        address[] assigned_officers;\n    }\n\n    enum TransactionState {\n        Pending,\n        Approved,\n        Ongoing,\n        Completed\n    }\n\n    enum District{\n        Thiruvananthapuram,\n        Kollam,\n        Pathanamthitta,\n        Alappuzha,\n        Kottayam,\n        Idukki,\n        Ernakulam,\n        Thrissur,\n        Palakkad,\n        Malapuram,\n        Kozhikode,\n        Wayanad,\n        Kannur,\n        Kasargod\n    }\n\n    struct Officer {\n        string name;\n        uint32 dep_id;\n        uint32 prj_count;\n        uint32[] assigned_proj;\n        address off_addr;\n    }\n\n    //Getters\n    function isAdmin() public view returns (bool) {\n        return msg.sender == admin;\n    }\n\n    //DEP\n    function getDepPrj(uint32 dep_id, uint32 prj_id)\n        public\n        view\n        returns (uint32)\n    {\n        require(departments.length >= dep_id, \"Invalid Dep id\");\n        Department memory dep = departments[dep_id - 1];\n        require(dep.prj_count >= prj_id, \"Invalid Project id\");\n        return dep.projects[prj_id - 1];\n    }\n\n    function getDepOff(uint32 dep_id, uint32 off_id)\n        public\n        view\n        returns (address)\n    {\n        require(departments.length >= dep_id, \"Invalid Dep id\");\n        Department memory dep = departments[dep_id - 1];\n        require(dep.off_count >= off_id, \"Invalid Officer id\");\n        return dep.officers[off_id - 1];\n    }\n\n    function getDepCount() public view returns (uint32) {\n        return uint32(departments.length);\n    }\n\n    //---\n    //PRJ\n    function getPrjTrx(uint32 prj_id, uint32 trx_id)\n        public\n        view\n        returns (uint32)\n    {\n        require(projects.length >= prj_id, \"Invalid Project id\");\n        Project memory prj = projects[prj_id - 1];\n        require(prj.trx_count >= trx_id, \"Invalid Transaction id\");\n        return prj.transactions[trx_id - 1];\n    }\n\n    function getPrjOff(uint32 prj_id, uint32 off_id)\n        public\n        view\n        returns (address)\n    {\n        require(projects.length >= prj_id, \"Invalid Project id\");\n        Project memory prj = projects[prj_id - 1];\n        require(prj.assigned_off_count >= off_id, \"Invalid Officer id\");\n        return prj.assigned_officers[off_id - 1];\n    }\n\n    function getPrjCount() public view returns (uint32) {\n        return uint32(projects.length);\n    }\n\n    //---\n    //OFF\n\n    function isOfficer() public view returns (bool) {\n        return officers[msg.sender].dep_id > 0;\n    }\n\n    function getOffPrj(address off_addr, uint32 prj_id)\n        public\n        view\n        returns (uint32)\n    {\n        Officer memory off = officers[off_addr];\n        require(off.prj_count >= prj_id, \"Invalid project id\");\n        return off.assigned_proj[prj_id - 1];\n    }\n\n    function getOffIdPrj(uint32 off_id, uint32 prj_id)\n        public\n        view\n        returns (uint32)\n    {\n        require(officers_list.length >= off_id, \"Invalid Officer id\");\n        address off_addr = officers_list[off_id];\n        Officer memory off = officers[off_addr];\n        require(off.prj_count >= prj_id, \"Invalid project id\");\n        return off.assigned_proj[prj_id - 1];\n    }\n\n    function getOffAddr(uint32 off_id) public view returns (address) {\n        require(officers_list.length >= off_id, \"Invalid Officer id\");\n        address off_addr = officers_list[off_id - 1];\n        return off_addr;\n    }\n\n    function getOffCount() public view returns (uint32) {\n        return uint32(officers_list.length);\n    }\n\n    //---\n    //TRX\n    function getTrxAppOff(uint32 tid, uint32 off_id)\n        public\n        view\n        returns (address)\n    {\n        require(transactions.length >= tid, \"Invalid Transaction id\");\n        Transaction memory trx = transactions[tid - 1];\n        require(trx.approval_votes >= off_id, \"Invalid Approved Officer id\");\n        return trx.approved_officers[off_id - 1];\n    }\n\n    function getTrxCount() public view returns (uint32) {\n        return uint32(transactions.length);\n    }\n\n    //-------\n\n    //Setters : )\n    function createDep(string memory dep_name)\n        external\n        onlyAdmin\n        returns (uint32)\n    {\n        Department memory dep = Department({\n            dep_id: uint32(departments.length) + 1,\n            prj_count: 0,\n            off_count: 0,\n            name: dep_name,\n            projects: new uint32[](MAX_PROJECTS),\n            officers: new address[](MAX_OFFICERS)\n        });\n        departments.push(dep);\n        uint32 len = uint32(departments.length);\n        emit CreateDepartment(len);\n        return len;\n    }\n\n    function addOfficer(\n        uint32 d_id,\n        string memory name,\n        address addr\n    ) external onlyAdmin {\n        Officer memory o = Officer({\n            name: name,\n            dep_id: d_id,\n            prj_count: 0,\n            assigned_proj: new uint32[](MAX_ASSIGNS),\n            off_addr: addr\n        });\n        officers[addr] = o;\n        officers_list.push(addr);\n        Department storage d = departments[d_id - 1];\n        d.officers[d.off_count] = addr;\n        d.off_count += 1;\n        emit CreateOfficer(addr);\n    }\n\n    function createProj(\n        string memory pname,\n        uint32 dep_id,\n        District prj_district,\n        address[] memory off_id\n    ) external onlyAdmin returns (uint32) {\n        Project memory p = Project({\n            prj_id: uint32(projects.length) + 1,\n            trx_count: 0,\n            name: pname,\n            dep_id: dep_id,\n            prj_district:prj_district,\n            assigned_officers: off_id,\n            transactions: new uint32[](MAX_TX_COUNT),\n            assigned_off_count: uint32(off_id.length)\n        });\n        projects.push(p);\n        uint32 len = uint32(projects.length);\n        Department storage d = departments[dep_id - 1];\n        d.projects[d.prj_count] = len;\n        d.prj_count += 1;\n        assignOfficers(len, dep_id, off_id);\n        emit CreateProject(len);\n        return len;\n    }\n\n    function assignOfficers(\n        uint32 pid,\n        uint32 dep_id,\n        address[] memory off_id\n    ) internal {\n        for (uint32 i = 0; i < off_id.length; i++) {\n            Officer storage o = officers[off_id[i]];\n            require(\n                o.dep_id == dep_id,\n                \"Officer Belongs to another department\"\n            );\n            o.assigned_proj[o.prj_count] = pid;\n            o.prj_count += 1;\n            emit OfficerAssignedtoProject(pid, off_id[i]);\n        }\n    }\n\n    function createTrx(\n        uint32 pid,\n        string memory tx_from,\n        string memory tx_to,\n        uint32 amt,\n        string memory statement,\n        uint32 req_votes\n    ) external onlyPermitted(pid) returns (uint32) {\n        Project storage p = projects[pid - 1];\n        require(\n            p.assigned_officers.length >= req_votes,\n            \"Not Enough Officers assigned to Project\"\n        );\n        Transaction memory t = Transaction({\n            pid: pid,\n            tid: uint32(transactions.length) + 1,\n            trx_from:tx_from,\n            trx_to:tx_to,\n            trx_amt:amt,\n            statement: statement,\n            required_votes: req_votes,\n            approval_votes: 0,\n            approved_officers: new address[](p.assigned_officers.length),\n            state: TransactionState.Pending\n        });\n        transactions.push(t);\n        uint32 tid = uint32(transactions.length);\n        p.transactions[p.trx_count] = tid;\n        p.trx_count += 1;\n        emit CreateTransaction(pid, tid);\n        return tid;\n    }\n\n    //-------\n    function approveTrx(uint32 tid) external onlyAssigned(tid) {\n        Transaction storage t = transactions[tid - 1];\n        if (t.state != TransactionState.Approved) {\n            t.approval_votes += 1;\n            if (t.approval_votes >= t.required_votes) {\n                t.state = TransactionState.Approved;\n                emit TransactionApproved(t.pid, tid);\n            }\n            t.approved_officers[t.approval_votes - 1] = msg.sender;\n            emit SendApproval(tid, t.pid, msg.sender);\n        } else {\n            revert(\"Transaction already Approved\");\n        }\n    }\n\n    //events\n    event CreateDepartment(uint32 id);\n    event CreateOfficer(address add);\n    event CreateProject(uint32 pid);\n    event OfficerAssignedtoProject(uint32 pid, address off_id);\n    event CreateTransaction(uint32 pid, uint32 tid);\n    event SendApproval(uint32 pid, uint32 tid, address off_id);\n    event TransactionApproved(uint32 pid, uint32 tid);\n}\n",
    "sourcePath": "/mnt/c/Users/rv1n/Documents/gfat/contracts/GFAT.sol",
    "compiler": {
        "name": "solc",
        "version": "0.8.14+commit.80d49f37.Emscripten.clang"
    },
    "schemaVersion": "3.4.7",
    "updatedAt": "2022-06-10T10:47:41.586Z",
    "devdoc": {
        "kind": "dev",
        "methods": {},
        "version": 1
    },
    "userdoc": {
        "kind": "user",
        "methods": {},
        "version": 1
    }
}